{
  "_format": "hh-sol-artifact-1",
  "contractName": "Token",
  "sourceName": "contracts/Token.sol",
  "abi": [
    {
      "inputs": [
        {
          "internalType": "address",
          "name": "owner_",
          "type": "address"
        },
        {
          "internalType": "string",
          "name": "name_",
          "type": "string"
        },
        {
          "internalType": "string",
          "name": "symbol_",
          "type": "string"
        },
        {
          "internalType": "uint256",
          "name": "totalSupply_",
          "type": "uint256"
        }
      ],
      "stateMutability": "nonpayable",
      "type": "constructor"
    },
    {
      "anonymous": false,
      "inputs": [
        {
          "indexed": true,
          "internalType": "address",
          "name": "sender",
          "type": "address"
        },
        {
          "indexed": false,
          "internalType": "uint256",
          "name": "amount",
          "type": "uint256"
        }
      ],
      "name": "Approval",
      "type": "event"
    },
    {
      "anonymous": false,
      "inputs": [
        {
          "indexed": true,
          "internalType": "address",
          "name": "sender",
          "type": "address"
        },
        {
          "indexed": true,
          "internalType": "address",
          "name": "recipient",
          "type": "address"
        },
        {
          "indexed": false,
          "internalType": "uint256",
          "name": "amount",
          "type": "uint256"
        }
      ],
      "name": "supplied",
      "type": "event"
    },
    {
      "anonymous": false,
      "inputs": [
        {
          "indexed": true,
          "internalType": "address",
          "name": "recipient",
          "type": "address"
        },
        {
          "indexed": false,
          "internalType": "uint256",
          "name": "amount",
          "type": "uint256"
        }
      ],
      "name": "transfered",
      "type": "event"
    },
    {
      "anonymous": false,
      "inputs": [
        {
          "indexed": true,
          "internalType": "address",
          "name": "from",
          "type": "address"
        },
        {
          "indexed": true,
          "internalType": "address",
          "name": "to",
          "type": "address"
        },
        {
          "indexed": false,
          "internalType": "uint256",
          "name": "amount",
          "type": "uint256"
        }
      ],
      "name": "transferedFrom",
      "type": "event"
    },
    {
      "inputs": [
        {
          "internalType": "address",
          "name": "owner_",
          "type": "address"
        },
        {
          "internalType": "address",
          "name": "spender",
          "type": "address"
        }
      ],
      "name": "allowance",
      "outputs": [
        {
          "internalType": "uint256",
          "name": "",
          "type": "uint256"
        }
      ],
      "stateMutability": "view",
      "type": "function"
    },
    {
      "inputs": [
        {
          "internalType": "address",
          "name": "account",
          "type": "address"
        }
      ],
      "name": "balanceOf",
      "outputs": [
        {
          "internalType": "uint256",
          "name": "",
          "type": "uint256"
        }
      ],
      "stateMutability": "view",
      "type": "function"
    },
    {
      "inputs": [],
      "name": "name",
      "outputs": [
        {
          "internalType": "string",
          "name": "",
          "type": "string"
        }
      ],
      "stateMutability": "view",
      "type": "function"
    },
    {
      "inputs": [],
      "name": "owner",
      "outputs": [
        {
          "internalType": "address",
          "name": "",
          "type": "address"
        }
      ],
      "stateMutability": "view",
      "type": "function"
    },
    {
      "inputs": [],
      "name": "symbol",
      "outputs": [
        {
          "internalType": "string",
          "name": "",
          "type": "string"
        }
      ],
      "stateMutability": "view",
      "type": "function"
    },
    {
      "inputs": [],
      "name": "totalSupply",
      "outputs": [
        {
          "internalType": "uint256",
          "name": "",
          "type": "uint256"
        }
      ],
      "stateMutability": "view",
      "type": "function"
    },
    {
      "inputs": [
        {
          "internalType": "address",
          "name": "recipient",
          "type": "address"
        },
        {
          "internalType": "uint256",
          "name": "amount",
          "type": "uint256"
        }
      ],
      "name": "transfer",
      "outputs": [],
      "stateMutability": "nonpayable",
      "type": "function"
    },
    {
      "inputs": [
        {
          "internalType": "address",
          "name": "from",
          "type": "address"
        },
        {
          "internalType": "address",
          "name": "to",
          "type": "address"
        },
        {
          "internalType": "uint256",
          "name": "amount",
          "type": "uint256"
        }
      ],
      "name": "transferFrom",
      "outputs": [],
      "stateMutability": "nonpayable",
      "type": "function"
    }
  ],
  "bytecode": "0x60806040523480156200001157600080fd5b50604051620013ee380380620013ee83398181016040528101906200003791906200026f565b82600390805190602001906200004f9291906200011f565b508160049080519060200190620000689291906200011f565b5080600160008673ffffffffffffffffffffffffffffffffffffffff1673ffffffffffffffffffffffffffffffffffffffff168152602001908152602001600020819055508373ffffffffffffffffffffffffffffffffffffffff16600073ffffffffffffffffffffffffffffffffffffffff167f1aed0bb33b9457dc427296cc309da7314fb8548b8525d905f2b81e0d266bf828836040516200010d91906200031e565b60405180910390a3505050506200051d565b8280546200012d906200040e565b90600052602060002090601f0160209004810192826200015157600085556200019d565b82601f106200016c57805160ff19168380011785556200019d565b828001600101855582156200019d579182015b828111156200019c5782518255916020019190600101906200017f565b5b509050620001ac9190620001b0565b5090565b5b80821115620001cb576000816000905550600101620001b1565b5090565b6000620001e6620001e08462000364565b6200033b565b905082815260208101848484011115620001ff57600080fd5b6200020c848285620003d8565b509392505050565b6000815190506200022581620004e9565b92915050565b600082601f8301126200023d57600080fd5b81516200024f848260208601620001cf565b91505092915050565b600081519050620002698162000503565b92915050565b600080600080608085870312156200028657600080fd5b6000620002968782880162000214565b945050602085015167ffffffffffffffff811115620002b457600080fd5b620002c2878288016200022b565b935050604085015167ffffffffffffffff811115620002e057600080fd5b620002ee878288016200022b565b9250506060620003018782880162000258565b91505092959194509250565b6200031881620003ce565b82525050565b60006020820190506200033560008301846200030d565b92915050565b6000620003476200035a565b905062000355828262000444565b919050565b6000604051905090565b600067ffffffffffffffff821115620003825762000381620004a9565b5b6200038d82620004d8565b9050602081019050919050565b6000620003a782620003ae565b9050919050565b600073ffffffffffffffffffffffffffffffffffffffff82169050919050565b6000819050919050565b60005b83811015620003f8578082015181840152602081019050620003db565b8381111562000408576000848401525b50505050565b600060028204905060018216806200042757607f821691505b602082108114156200043e576200043d6200047a565b5b50919050565b6200044f82620004d8565b810181811067ffffffffffffffff82111715620004715762000470620004a9565b5b80604052505050565b7f4e487b7100000000000000000000000000000000000000000000000000000000600052602260045260246000fd5b7f4e487b7100000000000000000000000000000000000000000000000000000000600052604160045260246000fd5b6000601f19601f8301169050919050565b620004f4816200039a565b81146200050057600080fd5b50565b6200050e81620003ce565b81146200051a57600080fd5b50565b610ec1806200052d6000396000f3fe608060405234801561001057600080fd5b50600436106100885760003560e01c80638da5cb5b1161005b5780638da5cb5b1461011557806395d89b4114610133578063a9059cbb14610151578063dd62ed3e1461016d57610088565b806306fdde031461008d57806318160ddd146100ab57806323b872dd146100c957806370a08231146100e5575b600080fd5b61009561019d565b6040516100a29190610b69565b60405180910390f35b6100b361022f565b6040516100c09190610beb565b60405180910390f35b6100e360048036038101906100de9190610a03565b610239565b005b6100ff60048036038101906100fa919061099e565b6104a4565b60405161010c9190610beb565b60405180910390f35b61011d6104ed565b60405161012a9190610b4e565b60405180910390f35b61013b610517565b6040516101489190610b69565b60405180910390f35b61016b60048036038101906101669190610a52565b6105a9565b005b610187600480360381019061018291906109c7565b610799565b6040516101949190610beb565b60405180910390f35b6060600380546101ac90610d1b565b80601f01602080910402602001604051908101604052809291908181526020018280546101d890610d1b565b80156102255780601f106101fa57610100808354040283529160200191610225565b820191906000526020600020905b81548152906001019060200180831161020857829003601f168201915b5050505050905090565b6000600554905090565b806000808573ffffffffffffffffffffffffffffffffffffffff1673ffffffffffffffffffffffffffffffffffffffff16815260200190815260200160002060003373ffffffffffffffffffffffffffffffffffffffff1673ffffffffffffffffffffffffffffffffffffffff1681526020019081526020016000205410156102f7576040517f08c379a00000000000000000000000000000000000000000000000000000000081526004016102ee90610bcb565b60405180910390fd5b80600160008573ffffffffffffffffffffffffffffffffffffffff1673ffffffffffffffffffffffffffffffffffffffff16815260200190815260200160002060008282546103469190610c78565b9250508190555080600160008473ffffffffffffffffffffffffffffffffffffffff1673ffffffffffffffffffffffffffffffffffffffff168152602001908152602001600020600082825461039c9190610c22565b925050819055506000816000808673ffffffffffffffffffffffffffffffffffffffff1673ffffffffffffffffffffffffffffffffffffffff16815260200190815260200160002060003373ffffffffffffffffffffffffffffffffffffffff1673ffffffffffffffffffffffffffffffffffffffff1681526020019081526020016000205461042c9190610c78565b905061043984338361081f565b8273ffffffffffffffffffffffffffffffffffffffff168473ffffffffffffffffffffffffffffffffffffffff167fbdd1614549887c76a34d76359414df2f53fe9cb8119f2a7fe87f4a1d718ab2c7836040516104969190610beb565b60405180910390a350505050565b6000600160008373ffffffffffffffffffffffffffffffffffffffff1673ffffffffffffffffffffffffffffffffffffffff168152602001908152602001600020549050919050565b6000600260009054906101000a900473ffffffffffffffffffffffffffffffffffffffff16905090565b60606004805461052690610d1b565b80601f016020809104026020016040519081016040528092919081815260200182805461055290610d1b565b801561059f5780601f106105745761010080835404028352916020019161059f565b820191906000526020600020905b81548152906001019060200180831161058257829003601f168201915b5050505050905090565b80600160003373ffffffffffffffffffffffffffffffffffffffff1673ffffffffffffffffffffffffffffffffffffffff16815260200190815260200160002054101561062b576040517f08c379a000000000000000000000000000000000000000000000000000000000815260040161062290610b8b565b60405180910390fd5b600073ffffffffffffffffffffffffffffffffffffffff168273ffffffffffffffffffffffffffffffffffffffff16141561069b576040517f08c379a000000000000000000000000000000000000000000000000000000000815260040161069290610bab565b60405180910390fd5b80600160003373ffffffffffffffffffffffffffffffffffffffff1673ffffffffffffffffffffffffffffffffffffffff16815260200190815260200160002060008282546106ea9190610c78565b9250508190555080600160008473ffffffffffffffffffffffffffffffffffffffff1673ffffffffffffffffffffffffffffffffffffffff16815260200190815260200160002060008282546107409190610c22565b925050819055508173ffffffffffffffffffffffffffffffffffffffff167f143d69bf67b6a4940e385436570698c0eee392469e51320d6db8637ca47ed1cf8260405161078d9190610beb565b60405180910390a25050565b60008060008473ffffffffffffffffffffffffffffffffffffffff1673ffffffffffffffffffffffffffffffffffffffff16815260200190815260200160002060008373ffffffffffffffffffffffffffffffffffffffff1673ffffffffffffffffffffffffffffffffffffffff16815260200190815260200160002054905092915050565b600073ffffffffffffffffffffffffffffffffffffffff168273ffffffffffffffffffffffffffffffffffffffff16141561088f576040517f08c379a000000000000000000000000000000000000000000000000000000000815260040161088690610bab565b60405180910390fd5b806000808573ffffffffffffffffffffffffffffffffffffffff1673ffffffffffffffffffffffffffffffffffffffff16815260200190815260200160002060008473ffffffffffffffffffffffffffffffffffffffff1673ffffffffffffffffffffffffffffffffffffffff168152602001908152602001600020600082825461091a9190610c22565b925050819055508173ffffffffffffffffffffffffffffffffffffffff167f1e4109814b4fb1210f81ef6540a9bf7e5834ff79536859d16d6398f0e417c44f826040516109679190610beb565b60405180910390a2505050565b60008135905061098381610e5d565b92915050565b60008135905061099881610e74565b92915050565b6000602082840312156109b057600080fd5b60006109be84828501610974565b91505092915050565b600080604083850312156109da57600080fd5b60006109e885828601610974565b92505060206109f985828601610974565b9150509250929050565b600080600060608486031215610a1857600080fd5b6000610a2686828701610974565b9350506020610a3786828701610974565b9250506040610a4886828701610989565b9150509250925092565b60008060408385031215610a6557600080fd5b6000610a7385828601610974565b9250506020610a8485828601610989565b9150509250929050565b610a9781610cac565b82525050565b6000610aa882610c06565b610ab28185610c11565b9350610ac2818560208601610ce8565b610acb81610dab565b840191505092915050565b6000610ae3601c83610c11565b9150610aee82610dbc565b602082019050919050565b6000610b06602383610c11565b9150610b1182610de5565b604082019050919050565b6000610b29601d83610c11565b9150610b3482610e34565b602082019050919050565b610b4881610cde565b82525050565b6000602082019050610b636000830184610a8e565b92915050565b60006020820190508181036000830152610b838184610a9d565b905092915050565b60006020820190508181036000830152610ba481610ad6565b9050919050565b60006020820190508181036000830152610bc481610af9565b9050919050565b60006020820190508181036000830152610be481610b1c565b9050919050565b6000602082019050610c006000830184610b3f565b92915050565b600081519050919050565b600082825260208201905092915050565b6000610c2d82610cde565b9150610c3883610cde565b9250827fffffffffffffffffffffffffffffffffffffffffffffffffffffffffffffffff03821115610c6d57610c6c610d4d565b5b828201905092915050565b6000610c8382610cde565b9150610c8e83610cde565b925082821015610ca157610ca0610d4d565b5b828203905092915050565b6000610cb782610cbe565b9050919050565b600073ffffffffffffffffffffffffffffffffffffffff82169050919050565b6000819050919050565b60005b83811015610d06578082015181840152602081019050610ceb565b83811115610d15576000848401525b50505050565b60006002820490506001821680610d3357607f821691505b60208210811415610d4757610d46610d7c565b5b50919050565b7f4e487b7100000000000000000000000000000000000000000000000000000000600052601160045260246000fd5b7f4e487b7100000000000000000000000000000000000000000000000000000000600052602260045260246000fd5b6000601f19601f8301169050919050565b7f546f6b656e3a20696e73756666696369656e742062616c616e63652e00000000600082015250565b7f546f6b656e3a205472616e7366657220746f20746865207a65726f206164647260008201527f6573730000000000000000000000000000000000000000000000000000000000602082015250565b7f546f6b656e3a20696e73756666696369656e7420616c6c6f77616e6365000000600082015250565b610e6681610cac565b8114610e7157600080fd5b50565b610e7d81610cde565b8114610e8857600080fd5b5056fea2646970667358221220eb6503ed21505b9a01ce79b4ab239e4b889e802f52ca4cba31a02313e0af86c864736f6c63430008040033",
  "linkReferences": {},
  "deployedLinkReferences": {}
}